:101000004BC0000064C0000062C0000060C000006F
:101010005EC000005CC000005AC0000058C0000064
:1010200056C0000054C0000052C00000CBC40000F5
:101030004EC000004CC000004AC0000048C0000084
:1010400046C0000044C0000042C0000040C0000094
:101050003EC000003CC000003AC0000038C00000A4
:1010600036C0000034C0000032C0000030C00000B4
:101070002EC000002CC000002AC0000028C00000C4
:1010800026C0000024C0000022C0000020C00000D4
:101090001EC000001CC0000011241FBECFEFD2E014
:1010A000DEBFCDBF11E0A0E0B1E0E4EBFCE102C0A7
:1010B00005900D92A436B107D9F711E0A4E6B1E08E
:1010C00001C01D92A338B107E1F74FD3F1C598CF06
:1010D000982F15C08091F200882371F48091E80068
:1010E0008B7F8093E80003C08EB3882351F08091FA
:1010F000E80082FFF9CF02C08091F100915099235E
:1011000049F7089520917201309171018091700129
:1011100090916F018093690190936A01C901809356
:101120006B0190936C01089580916D01843009F4F6
:101130005AC0853030F4813059F0833009F0C3C093
:101140001FC0853009F4A0C0863009F0BCC0AFC014
:1011500080916E01823008F0B6C0D4DF80916E01BC
:10116000882361F48091690190916A0123E0FC0178
:1011700020935700E89507B600FCFDCF85E008C036
:1011800080916E01882311F0823029F4BBDF89E061
:10119000809301010895813009F095C020E030E08E
:1011A00040E050E0F90184918F3F81F0CA01AA2705
:1011B000BB278093680130936A01209369018AE01C
:1011C0008093010185E08093650108952F5F3F4F73
:1011D0004F4F5F4F2030F0E13F07F0E04F07F0E066
:1011E0005F0701F7089580916E01833051F581E02A
:1011F000809364018091730190917401892B71F047
:1012000080916F01813009F05EC0809172019091F0
:1012100071019093670180936601089580916F0139
:10122000882361F42CE088E190E00FB6F894A8954B
:10123000809360000FBE209360000895109200011B
:101240000895882309F03FC080916F018F3F09F016
:101250003AC0E0E0F0E093E085E090935700E89535
:1012600007B600FCFDCF80935700E89507B600FC59
:10127000FDCFE058FF4F20E1E030F20771F781E148
:1012800080935700E8950895E0916F0180916E0179
:10129000882321F4F0E0EB5FFE4F05C0813099F424
:1012A000F0E0EE52FF4F80818093780108958091A5
:1012B0006E01833041F480916F01882321F4809185
:1012C00070018093680108952F923F924F925F9230
:1012D0006F927F929F92AF92BF92CF92DF92EF92E6
:1012E000FF920F931F93CF93DF9380918101909191
:1012F000820190937401809373018091750188231A
:1013000051F0809175018150809375018091750134
:10131000882309F45D9A80917601882351F08091A9
:10132000760181508093760180917601882309F4BB
:101330005C9A80917C01833009F4B2C1843030F42E
:10134000813071F0823009F0E3C111C1853009F4B8
:10135000C5C1853008F4BAC1863009F0D9C1CDC104
:101360005C9883E0809376018091E800877F80938A
:10137000E80080916401882329F0D6DE5D9A5C9AAA
:10138000109264012091730130917401211531058F
:1013900029F42AC08EB3882309F4BAC18091E800E9
:1013A00082FFF8CF8091F10080936D012150304091
:1013B0003093740120937301EEE6F1E00CC080914C
:1013C000F10081932150304081E0E337F80719F4B0
:1013D0003183208308C08091F200882381F7309305
:1013E000740120937301A0DE80910101853009F022
:1013F000BAC08091730190917401892B21F482E02D
:1014000080930101B0C08AE163DE809169018F7130
:101410005FDEC0916B01D0916C0120916901309128
:101420006A0121968E01021B130B219780916E0198
:10143000882309F093C0180136942794C901A0911C
:101440006801B0E09C01AD0162E0E62EF12C012DB7
:10145000112DE20EF31E041F151F59016A0190E0C1
:1014600099249394B5E0A3E048C08091F2008823CA
:1014700071F48091E8008B7F8093E80004C08EB304
:10148000882309F445C18091E80082FFF8CF0894D1
:10149000210831088091F100682F8091F100782FA8
:1014A000F5010B0190925700E89511249F5F90344D
:1014B00019F021143104A1F4F901B0935700E89513
:1014C00007B600FCFDCF2114310451F0F701A093C1
:1014D0005700E89507B600FCFDCFA801970190E002
:1014E00042E0442E512C612C712CE40CF51C061D9D
:1014F000171DA40CB51CC61CD71C2114310409F0FF
:10150000B4CFD0936A01C093690181E18093570001
:10151000E89527C08091F200882371F48091E8005B
:101520008B7F8093E80004C08EB3882309F4F0C059
:101530008091E80082FFF8CF6091F100809169010D
:1015400090916A01A7D38091690190916A010196F7
:1015500090936A01809369010150104001151105B3
:10156000C9F680E1B5DD8091E8008B7FC3C0809132
:10157000E800877F8093E8005D9883E080937501A1
:1015800004C08EB3882309F4C3C08091E80080FFB3
:10159000F8CF80910101893091F08A3069F480910F
:1015A0006E01813049F48091690190916A018093C4
:1015B000F1009093F1009BC08091780196C06091FA
:1015C0006B0170916C012091690130916A016F5F2C
:1015D0007F4F7B01E21AF30A6150704080916E01E7
:1015E000882389F5870116950795C901A09168019F
:1015F000B0E09C01AD011FC08091F200803271F417
:101600008091E8008E7F8093E80004C08EB3882329
:1016100009F47EC08091E80080FFF8CFF901859140
:1016200094918093F1009093F100015010402E5F4F
:101630003F4F4F4F5F4F01151105F1F670936A014F
:101640006093690129C0823039F523C08091F2008E
:10165000803271F48091E8008E7F8093E80004C0AE
:101660008EB3882309F454C08091E80080FFF8CF3E
:101670000091690110916A01C80104D38093F100BF
:101680000F5F1F4F10936A01009369010894E108EE
:10169000F108E114F104D1F682E08093010127C042
:1016A0008091E800877F8093E800809165018093B6
:1016B000F1001092F1001092F1001092F10080916F
:1016C00001018093F1001092F10011C08091E800B7
:1016D000877F8093E8001092650119C08091E8002F
:1016E000877F8093E800809101018093F1008091D1
:1016F000E8008E7F8093E8000AC08091E800877F31
:101700008093E8005D9A5C9A82E08093010187D023
:10171000DF91CF911F910F91FF90EF90DF90CF90CD
:10172000BF90AF909F907F906F905F904F903F9051
:101730002F9008952BD181E085BF15BE089584B701
:10174000877F84BF88E10FB6F89480936000109281
:1017500060000FBE81E085BF82E085BF8AB18063F3
:101760008AB98BB180638BB90CC1E9DF789401C071
:1017700080D2809100018823D9F780916401882369
:10178000B9F7D8DFE0916601F09167010995FA0198
:10179000923071F0933089F0913029F488E091E033
:1017A00022E130E019C080E090E020E030E014C099
:1017B0008AE191E02BE130E00FC0882339F4809179
:1017C0003501282F30E085E391E006C08091390192
:1017D000282F30E089E391E091838083C901089547
:1017E0008091EB0081608093EB001092ED0060939C
:1017F000EC004093ED008091EE00881F8827881F41
:1018000008951092F4001092F0001092E8001092E7
:10181000ED00EBEEF0E080818E7F80830895809173
:101820007B0188238CF403C08EB38823B1F08091B0
:10183000E80082FFF9CF8091E8008B7F8093E80079
:1018400008958EB3882349F08091E80080FFF9CF96
:101850008091E8008E7F8093E80008959C0140917C
:101860008101509182014617570718F4F90120E0D1
:1018700038C06115710511F0AB01F8CF8091E80017
:101880008E7F8093E80040E050E0F0CF8091E80048
:1018900083FF02C081E008958091E80082FD2DC0A1
:1018A0008EB3882381F18EB3853079F18091E80081
:1018B00080FF17C09091F20006C081918093F100E3
:1018C000415050409F5F4115510511F09032A8F3EF
:1018D00020E0903209F421E08091E8008E7F80932F
:1018E000E8004115510591F6222381F606C08EB31A
:1018F000882349F08EB3853041F08091E80082FF63
:10190000F6CF80E0089582E0089583E0089554D0F2
:1019100056D01EBA1092790184E089BD89B58260E3
:1019200089BD09B400FEFDCF8091D800982F9F7724
:101930009093D80080688093D800809163008E7F58
:10194000809363008091D8008F7D8093D800809130
:10195000E0008E7F8093E0008091E1008E7F809395
:10196000E1008091E20081608093E2008091E100DB
:10197000877F8093E1008091E20088608093E2009D
:101980000895C5DF81E080937A010895C0DFE0EE1D
:10199000F0E0808181608083E8EDF0E080818F77E6
:1019A00080830AD00CD019BCE3E6F0E0808181602E
:1019B000808310927A0108951092E20008951092A7
:1019C000E10008951F920F920FB60F9211242F93EA
:1019D0003F934F935F936F937F938F939F93AF93B7
:1019E000BF93EF93FF938091E10080FF1BC0809134
:1019F000E20080FF17C08091E1008E7F8093E100BC
:101A00008091E2008E7F8093E2008091E20080610D
:101A10008093E2008091D80080628093D80019BC46
:101A20001EBA26D18091E10084FF29C08091E20096
:101A300084FF25C084E089BD89B5826089BD09B471
:101A400000FEFDCF8091D8008F7D8093D8008091DB
:101A5000E1008F7E8093E1008091E2008F7E809391
:101A6000E2008091E20081608093E2008091790140
:101A7000882311F481E001C084E08EBBF9D080910D
:101A8000E10083FF22C08091E20083FF1EC08091AD
:101A9000E100877F8093E10082E08EBB10927901A4
:101AA0008091E1008E7F8093E1008091E2008E7F43
:101AB0008093E2008091E20080618093E200A1DEE9
:101AC00080E060E042E28CDED3D08091E10082FFD2
:101AD0000AC08091E20082FF06C08091E1008B7F06
:101AE0008093E100C5D0FF91EF91BF91AF919F919D
:101AF0008F917F916F915F914F913F912F910F90B7
:101B00000FBE0F901F9018951F93DF93CF9300D0B7
:101B1000CDB7DEB7EBE7F1E08091F100819381E092
:101B2000E338F807C9F790917B0180917C018530FB
:101B300011F1863040F48130B9F0813070F083309B
:101B400009F081C011C0883009F453C0893009F40C
:101B500062C0863009F077C02DC0903809F474C097
:101B6000923809F070C070C0992309F46DC09230AA
:101B700009F069C069C0992309F065C010917D0121
:101B80008091E800877F8093E80049DE04C08EB32F
:101B9000882309F459C08091E80080FFF8CF812F95
:101BA0008F7711F492E001C093E09EBB8068809330
:101BB000E3004AC09058923008F045C080917D0102
:101BC00090917E0160917F01AE014F5F5F4FDFDD3D
:101BD000BC010097C9F18091E800877F8093E800FD
:101BE00089819A813BDE8091E8008B7F8093E800B9
:101BF0002BC0903841F58091E800877F8093E80002
:101C0000809179018093F1008091E8008E7F80932C
:101C1000E80005DE19C09923B1F490917D0192305E
:101C200098F48091E800877F8093E8009093790191
:101C3000F6DD80917901882311F483E001C084E00E
:101C40008EBB16D001C040DB8091E80083FF0AC044
:101C50008091EB0080628093EB008091E800877FA9
:101C60008093E8000F900F90CF91DF911F9108951E
:101C700008958EB3882329F08091E80083FF01C086
:101C800043CF0895F999FECF92BD81BDF89A992767
:101C900080B50895262FF999FECF1FBA92BD81BD58
:101CA00020BD0FB6F894FA9AF99A0FBE01960895DE
:041CB000F894FFCFD6
:101CB40001021E938220DCFB1201100100000020AF
:101CC400EB03F72F00000001000109021B000101D2
:101CD4000080320904000000FE0102000921030013
:101CE40000000C0001040309042803530070006180
:101CF4000072006B00460075006E00200042006F09
:101D0400006F0074006C006F006100640065007275
:041D140000000000CB
:0400000300001000E9
:00000001FF
